{
  "contractName": "Insurance",
  "abi": [
    {
      "anonymous": false,
      "inputs": [
        {
          "indexed": false,
          "internalType": "address",
          "name": "farmer",
          "type": "address"
        }
      ],
      "name": "ExistingUser",
      "type": "event"
    },
    {
      "anonymous": false,
      "inputs": [
        {
          "indexed": false,
          "internalType": "address",
          "name": "farmer",
          "type": "address"
        },
        {
          "indexed": false,
          "internalType": "string",
          "name": "message",
          "type": "string"
        }
      ],
      "name": "RegistrationSuccess",
      "type": "event"
    },
    {
      "inputs": [],
      "name": "registerUser",
      "outputs": [],
      "stateMutability": "nonpayable",
      "type": "function"
    }
  ],
  "bytecode": "0x608060405234801561001057600080fd5b5061076c806100206000396000f3fe608060405234801561001057600080fd5b506004361061002b5760003560e01c80634d3820eb14610030575b600080fd5b61003861003a565b005b600115156000803373ffffffffffffffffffffffffffffffffffffffff1673ffffffffffffffffffffffffffffffffffffffff16815260200190815260200160002060009054906101000a900460ff161515036100cd577fa9042a292aac7586df4bd63c890632a6527bd9f10dfa1a080c4be302f74bb036336040516100c09190610431565b60405180910390a1610185565b60016000803373ffffffffffffffffffffffffffffffffffffffff1673ffffffffffffffffffffffffffffffffffffffff16815260200190815260200160002060006101000a81548160ff0219169083151502179055507f0d4b1d2e70e0ecede70af5db5da9998725a88f5261d993232c6d21a126bbedd93361014f33610187565b60405160200161015f91906104e3565b60405160208183030381529060405260405161017c929190610564565b60405180910390a15b565b60606101ad8273ffffffffffffffffffffffffffffffffffffffff16601460ff166101b4565b9050919050565b6060600060028360026101c791906105cd565b6101d1919061060f565b67ffffffffffffffff8111156101ea576101e9610643565b5b6040519080825280601f01601f19166020018201604052801561021c5781602001600182028036833780820191505090505b5090507f30000000000000000000000000000000000000000000000000000000000000008160008151811061025457610253610672565b5b60200101907effffffffffffffffffffffffffffffffffffffffffffffffffffffffffffff1916908160001a9053507f7800000000000000000000000000000000000000000000000000000000000000816001815181106102b8576102b7610672565b5b60200101907effffffffffffffffffffffffffffffffffffffffffffffffffffffffffffff1916908160001a905350600060018460026102f891906105cd565b610302919061060f565b90505b60018111156103a2577f3031323334353637383961626364656600000000000000000000000000000000600f86166010811061034457610343610672565b5b1a60f81b82828151811061035b5761035a610672565b5b60200101907effffffffffffffffffffffffffffffffffffffffffffffffffffffffffffff1916908160001a905350600485901c94508061039b906106a1565b9050610305565b50600084146103e6576040517f08c379a00000000000000000000000000000000000000000000000000000000081526004016103dd90610716565b60405180910390fd5b8091505092915050565b600073ffffffffffffffffffffffffffffffffffffffff82169050919050565b600061041b826103f0565b9050919050565b61042b81610410565b82525050565b60006020820190506104466000830184610422565b92915050565b600081519050919050565b600081905092915050565b60005b83811015610480578082015181840152602081019050610465565b60008484015250505050565b60006104978261044c565b6104a18185610457565b93506104b1818560208601610462565b80840191505092915050565b7f2072656769737465726564207375636365737366756c6c792100000000000000815250565b60006104ef828461048c565b91506104fa826104bd565b60198201915081905092915050565b600082825260208201905092915050565b6000601f19601f8301169050919050565b60006105368261044c565b6105408185610509565b9350610550818560208601610462565b6105598161051a565b840191505092915050565b60006040820190506105796000830185610422565b818103602083015261058b818461052b565b90509392505050565b6000819050919050565b7f4e487b7100000000000000000000000000000000000000000000000000000000600052601160045260246000fd5b60006105d882610594565b91506105e383610594565b92508282026105f181610594565b915082820484148315176106085761060761059e565b5b5092915050565b600061061a82610594565b915061062583610594565b925082820190508082111561063d5761063c61059e565b5b92915050565b7f4e487b7100000000000000000000000000000000000000000000000000000000600052604160045260246000fd5b7f4e487b7100000000000000000000000000000000000000000000000000000000600052603260045260246000fd5b60006106ac82610594565b9150600082036106bf576106be61059e565b5b600182039050919050565b7f537472696e67733a20686578206c656e67746820696e73756666696369656e74600082015250565b6000610700602083610509565b915061070b826106ca565b602082019050919050565b6000602082019050818103600083015261072f816106f3565b905091905056fea2646970667358221220cc22ba707e1b815a5794b4da03b56fccc407c6639c0c5a198534c7a509f1421764736f6c63430008110033",
  "immutableReferences": {},
  "source": "// SPDX-License-Identifier: UNLICENSED\npragma solidity ^0.8.17;\n\nimport \"@openzeppelin/contracts/utils/Strings.sol\";\n\ncontract Insurance {\n    struct Claim {\n        address sender;\n        int amount;\n        address receiver;\n    }\n\n    mapping(address => bool) registeredUsers;\n\n    event RegistrationSuccess(address farmer, string message);\n    event ExistingUser(address farmer);\n\n    function registerUser() public {\n        if (registeredUsers[msg.sender] == true) {\n            emit ExistingUser(msg.sender);\n        } else {\n            registeredUsers[msg.sender] = true;\n            emit RegistrationSuccess(\n                msg.sender,\n                string.concat(\n                    Strings.toHexString(msg.sender),\n                    \" registered successfully!\"\n                )\n            );\n        }\n    }\n}\n",
  "sourcePath": "/Users/devaanshpatel02/Desktop/dev_projects/blockchain/farmer/contracts/Insurance.sol",
  "compiler": {
    "name": "solc",
    "version": "0.8.17+commit.8df45f5f.Emscripten.clang"
  },
  "schemaVersion": "3.4.10",
  "updatedAt": "2022-10-18T16:02:39.668Z",
  "networkType": "ethereum",
  "devdoc": {
    "kind": "dev",
    "methods": {},
    "version": 1
  },
  "userdoc": {
    "kind": "user",
    "methods": {},
    "version": 1
  }
}